:0200000280007C
:10000000B8250720590B0800550B0800550B0800B0
:10001000550B0800550B0800550B080000000000A8
:10002000000000000000000000000000550B080068
:10003000550B080000000000550B0800550B080088
:10004000550B0800550B0800550B0800550B080010
:10005000550B0800550B0800550B0800550B080000
:10006000550B0800550B080000000000210908008E
:100070003D09080059090800750908000000000042
:1000800000000000550B0800550B0800550B080038
:10009000550B0800550B0800550B0800550B0800C0
:1000A000550B080000000000550B0800550B080018
:1000B000550B0800550B0800550B0800550B0800A0
:1000C000550B0800550B0800550B0800550B080090
:1000D000550B0800550B0800550B0800550B080080
:1000E000550B0800550B0800550B0800550B080070
:1000F000550B080008B50548054B191A062900D804
:1001000008BD044A002AFBD09047F9E7F410080024
:10011000F71008000000000008B50748074B191A3F
:100120008A1002EBD273591000D108BD044A002A8C
:10013000FBD09047F9E700BFF4100800F410080066
:100140000000000010B5064C237843B9FFF7D2FF3A
:10015000044810B10448AFF300800121217010BDA4
:100160003804072000000000F410080008B5084B10
:100170001BB108480849AFF300800848016811B175
:10018000074A02B19047BDE80840FFF7C5BF00BF6E
:1001900000000000F41008003C040720F4100800E0
:1001A0000000000000B585B04FF0240040F6D123D8
:1001B000C0F20803984744F24020C0F20F000190BB
:1001C0004FF0000102914FF43D42C0F20152039200
:1001D0004FF48040C4F2090001A940F27933C0F223
:1001E0000803984705B000BD38B54FF48044C4F209
:1001F000090420464FF0070140F2F943C0F208031A
:10020000984740F28C51C2F207014FF00B00486052
:100210004FF064020A61CA604FF007050D60204686
:1002200040F2C533C0F2080398474FF49050C4F22F
:100230000E004FF080514FF0807240F22D63C0F2FB
:10024000080398472046294640F2ED42C0F20802D2
:10025000904738BDF0B48CB006460F4601AC41F271
:100260009C05C0F208050FCD0FC40FCD0FC495E853
:10027000070084E80700019BB7FBF3F0B0FBF6F141
:10028000B1F5807F52D90299B7FBF1F2B2FBF6F1DA
:10029000B1F5807F4DD9039BB7FBF3F0B0FBF6F1CE
:1002A000B1F5807F48D90499B7FBF1F2B2FBF6F1C2
:1002B000B1F5807F43D9059BB7FBF3F0B0FBF6F1B6
:1002C000B1F5807F3ED90699B7FBF1F2B2FBF6F1AA
:1002D000B1F5807F39D9079BB7FBF3F0B0FBF6F19E
:1002E000B1F5807F34D90899B7FBF1F2B2FBF6F192
:1002F000B1F5807F2FD9099BB7FBF3F0B0FBF6F186
:10030000B1F5807F2AD90A99B7FBF1F2B2FBF6F179
:10031000B1F5807F25D90B9BB7FBF3F0B0FBF6F16D
:10032000B1F5807F20D94FF6FF7021E04FF0000239
:100330001CE04FF0010219E04FF0020216E04FF00E
:10034000030213E04FF0040210E04FF005020DE04D
:100350004FF006020AE04FF0070207E04FF00802F4
:1003600004E04FF0090201E04FF00A0241EA0220E6
:100370000CB0F0BC704700BF70B506460C4608686C
:1003800058B1896840F25523C0F2080398474FF6E8
:10039000FF71884214D0054601E04FF00005606807
:1003A00058B1A16840F25522C0F2080290474FF6BA
:1003B000FF73984204D045EA004535604FF00000D5
:1003C00070BD00BF70B40B688D8A4A6802F00F04DC
:1003D00025430E8935438A7A45EA42258C7D45EAD4
:1003E0000446CA7D46EA42450C7E45EA844603F14E
:1003F00010024FEA421544194651CE6866600A69F8
:1004000000EB4315C5F80C228C7D3CB18E8B4A8BDA
:1004100042EA064500EB4314C4F81852856C4FF0CD
:10042000011606FA03F66FEA06021540CE7F06FAB9
:1004300003F68C7F04FA03F444EA06442C438464F4
:10044000456C2A4091F8215005FA03F591F82040B7
:1004500004FA03F444EA0544224342644FF00102E3
:1004600002FA03F291F822401CB1046A14430462B8
:1004700003E0046A24EA0204046291F82440012C97
:10048000846E0CBF14439443846691F82540012C7C
:10049000846E0CBF44EA024224EA02428266032BC5
:1004A0000FD8C46E4FEAC3034FF0FF0202FA03F203
:1004B00024EA020291F8231001FA03F31A43C266F8
:1004C00010E0A3F10403046F4FEAC3034FF0FF02EF
:1004D00002FA03F224EA020291F8231001FA03F36C
:1004E0001A4302674FF0000070BC70474FF00103E1
:1004F00003FA01F1416070474FF0010303FA01F183
:100500008160704710B54FF43D40C0F2015040F695
:100510005963C0F2080398474FF000004FF03E01C6
:1005200040F63122C0F20802904740F6A124C0F202
:100530000804A0470028FCD040F6B120C0F2080013
:1005400080474FF4C061C4F20E0143F60173C2F25A
:100550000D038B6240F6C124C0F20804A0470028B6
:10056000FCD04FF0100040F69112C0F20802904704
:1005700040F69140C0F20800804710BD10B541F62A
:100580005023C4F20E034FF400425A604FF00B00A8
:1005900040F6D124C0F20804A0474FF00C00A04759
:1005A0004FF00D00A0474FF00E00A0474FF03B006A
:1005B0004FF0605140F20574C0F20804A0474FF0BC
:1005C00055004FF06051A0474FF056004FF060517A
:1005D000A0474FF068004FF07901C2F60001A04734
:1005E0004FF05C004FF00101C2F60001A0474FF44C
:1005F0006060C4F20E004FF440714FF0006240F6AC
:100600000503C0F2080398474FF02B004FF000613C
:10061000A0474FF02A004FF00061A04710BD00BF77
:100620000AB1416670470166704700BF4264B1F18C
:10063000805F16D004D8C9B1B1F1006F15D109E0BF
:10064000B1F1405F12D0B1F1605F0FD0B1F1205F26
:100650000BD17047036F016F0B4023EA020303675E
:1006600003E0036F42EA030101674260704700BF85
:1006700041647047F8B504460D4616461F4640F2E1
:100680007163C0F20803984720462946069A40F253
:100690002163C0F2080398470FB1256500E0656546
:1006A0000EB1256300E0656325612560F8BD00BFDC
:1006B00070B504460D46164640F27163C0F2080359
:1006C00098472046294606F0010240F22163C0F215
:1006D0000803984716F00A0F14BF2562656216F0EA
:1006E000020F02D0C4F8805004E016F0080F18BFC3
:1006F000C4F880506561256070BD00BFC06C704754
:10070000806C7047F0B583B00D464FEA501606F581
:10071000001101F207724FEA422605F0F044B4F1ED
:10072000205F42D006D8B4F1006F0AD0B4F1805FE8
:1007300064D120E0B4F1405F46D0B4F1605F5DD198
:1007400042E000F01F074FF0010404FA07F73046BB
:100750004FF000613A4640F22D63C0F2080398471B
:100760003046394605EA040240F22163C0F208032C
:100770009847204644E000F01F004FF0010404FABF
:1007800000F730464FF080513A4640F22D63C0F2F8
:10079000080398473046394605EA040240F22163CF
:1007A000C0F20803984720462AE000F01F024FF0ED
:1007B0000104304604FA02F12A4640F2B163C0F265
:1007C0000803984720461BE000F01F024FF0010489
:1007D00005F0605305EA04010091304604FA02F185
:1007E000B3F1605F14BF00220122C5F3800340F221
:1007F0007565C0F20805A847204601E04FF00000EB
:1008000003B0F0BDF0B583B007460E46154602F0C2
:10081000F044B4F1205F36D006D8B4F1006F0AD0AE
:10082000B4F1805F4DD11AE0B4F1405F33D0B4F140
:10083000605F46D12FE04FF00061324640F22D63F9
:10084000C0F2080398473846314605F0010240F2ED
:100850002163C0F2080398474FF0010033E04FF0E6
:100860008051324640F22D63C0F208039847384663
:10087000314605F0010240F22163C0F208039847B7
:100880004FF001001FE040F2B163C0F20803984747
:100890004FF0010017E005F0605205F001000090F4
:1008A00038463146B2F1605F14BF00220122C5F321
:1008B000800340F27564C0F20804A0474FF00100C5
:1008C00001E04FF0000003B0F0BD00BFF8B50446F2
:1008D0000E4640F2FD63C0F20803984705462046E5
:1008E00040F20171C0F208018847054014D00B4C5A
:1008F000274654F80C0CB0420AD154F8081C29427F
:1009000006D022683046904754F8083C25EA030593
:1009100004F11004002DEBD1F8BD00BF60040720E6
:1009200008B54FF46060C4F20E004FF00B0140F6C2
:10093000CD03C0F20803984708BD00BF08B54FF4C7
:100940008050C4F20E004FF00C0140F6CD03C0F20F
:100950000803984708BD00BF08B54FF49050C4F293
:100960000E004FF00D0140F6CD03C0F2080398478A
:1009700008BD00BF08B54FF4A050C4F20E004FF000
:100980000E0140F6CD03C0F20803984708BD00BF32
:100990004FF4C063C4F20E031A6B22F070010843D7
:1009A0001863986E10F0080F07D010E000F1FF33C5
:1009B000906E10F0080F38D009E04FF400604FF44B
:1009C000C062C4F20E02916E11F0080FEED04FF427
:1009D000C061C4F20E010A6B22F0030343F002006F
:1009E0000863896E11F0080F09D04FF000007047BE
:1009F00003F1FF33916E11F0080F13D009E04FF4AB
:100A000000634FF4C062C4F20E02906E10F0080F43
:100A1000EED04FF0000070474FF0010070474FF0EC
:100A200001007047013BF0D1F9E7581ECBD1F3E745
:100A300088B14FF4C061C4F20E01086A4FF6FC722F
:100A4000CFF6C86202404FF00203C0F2371342EA09
:100A50000300086270474FF4C063C4F20E031A6AC1
:100A600022F45C1020F0030242F45C1040F001021A
:100A70004FEA016142EA114018624FF4C062C4F2C9
:100A80000E02936E13F0010FFBD04FF4C061C4F25D
:100A90000E01086A40F09B7242F480330B6270478B
:100AA0004FF4C063C4F20E03986E00F480307047B8
:100AB0004FF4C063C4F20E034FF000529A627047C5
:100AC0004FF4C063C4F20E03986E00F0020070474A
:100AD0002C2835D81F2817D84FF4C061C4F20E0156
:100AE0008A694FF0010303FA00F31A4093422AD0B7
:100AF0004FF0010101FA00F04FF4C062C4F20E029F
:100B000010614FF0000070474FF4C063C4F20E0351
:100B1000D3F80821A0F120004FF0010101FA00F103
:100B20000A40914212D04FF0010303FA00F04FF453
:100B3000C062C4F20E02C2F800014FF0000070471C
:100B40004FF0010070474FF0000070474FF0000079
:100B5000704700BFFEE700BF38B540F20003C2F2A5
:100B6000070341F2F402C0F208029A4203D040485F
:100B70004049814204D3404B404A9A4225D342E047
:100B80003F4D404C631B23F003054FF0000340F240
:100B90000002C2F2070241F2F401C0F2080105F1BD
:100BA0000400C5F380045D589D5003F104038342A3
:100BB00055D1E0E75D589D5003F104035C589C500B
:100BC00003F104038342F5D1D5E72F4D2F49481B8C
:100BD00020F0030440F23843C2F20703E2184FF05A
:100BE0000001501BA0F10400C0F3800445F8041F6D
:100BF00095422DD107E005F10403696005F1080570
:100C000059609542F7D140F20005C0F2080525F081
:100C1000604222F07F014FF46D40CEF2000081600F
:100C200005F16044B4F5801F07D24FF46D43CEF256
:100C300000039D6845F000529A6041F23101C0F214
:100C40000801884740F61D70C0F208008047FEE7A3
:100C5000002CD0D045F8041F9542CCD1D3E7002C0E
:100C6000A8D05C589C5003F104038342A2D182E7D0
:100C70003804072000000720B405072038040720A7
:100C8000040007203B04072034040720AF05072099
:100C90004FF4C063C4F20E03186B00F00301032984
:100CA00000F2B180DFE801F002144F4F41F610204E
:100CB000C4F20E00416911F0800F40F20003C2F24D
:100CC000070314BF4FF400424FF4FA421A609AE04F
:100CD0004FF4C063C4F20E03186A10F0807F09D08D
:100CE0004FF4D853C0F2B70340F20002C2F2070239
:100CF000136088E04FF41061C0F23D0140F2000241
:100D0000C2F2070211604FF4C063C4F20E03186A06
:100D100000F07001102902D0202974D109E04FF4AD
:100D20009050C0F27A0040F20001C2F20701086060
:100D300069E04FF4D853C0F2B70340F20002C2F2A8
:100D4000070213605FE04FF4C062C4F20E02136A40
:100D500013F0807F09D04FF4D851C0F2B70140F2B0
:100D60000002C2F20702116027E04FF41060C0F2E7
:100D70003D0040F20001C2F2070108604FF4C0627A
:100D8000C4F20E02136A03F07000102802D020286B
:100D900013D109E04FF49053C0F27A0340F20000FF
:100DA000C2F20700036008E04FF4D851C0F2B70167
:100DB00040F20002C2F2070211604FF4C063C4F2B5
:100DC0000E03186B00F00301022913D14FF4C06128
:100DD000C4F20E01886A896A40F20003C2F2070376
:100DE000C0F30A401A6800FB0220C9B2B0FBF1F25E
:100DF0001A6008E04FF4E053C0F64E6340F2000280
:100E0000C2F2070213604FF4C062C4F20E02106B0C
:100E100000F0700170290ED140F20003C2F2070306
:100E200018684AF6AB22CAF6AA22A2FB00014FEAD2
:100E30005100186070474FF4C063C4F20E031A6B80
:100E400040F20000C2F20700C2F30211036823FA65
:100E500001F30360704700BF4EF6BF23C0F22113B9
:100E600098420CD84FF42063C4F20E034FF00000F8
:100E700018604FF44061C4F20E01086070474FF2F1
:100E80007F01C0F2FA2188420CD84FF42060C4F2EE
:100E90000E004FF4807101604FF44062C4F20E0204
:100EA0001160704748F6FF73C0F2D03398420CD8F7
:100EB0004FF42061C4F20E014FF400720A604FF447
:100EC0004063C4F20E031A6070474BF2FF31C0F268
:100ED000C44188420CD84FF42063C4F20E034FF48F
:100EE00040721A604FF44060C4F20E000260704716
:100EF00044F67F23C0F25D5398424FF42060C4F261
:100F00000E0094BF4FF480624FF4A06202604FF471
:100F10004061C4F20E010A60704700BF08B540F29C
:100F20000553C0F20803984740F27D50C0F2080014
:100F300080474FF00B0040F6D124C0F20804A047D0
:100F40004FF00C00A0474FF00D00A0474FF00E00EF
:100F5000A04740F2A511C0F20801884740F2E9120B
:100F6000C0F208029047FEE72DE9F8439846234B6C
:100F700006461C680F46D4F84801914618B904F596
:100F8000A670C4F8480141681F2916DD1C4818B92D
:100F90004FF0FF30BDE8F8834FF4C870AFF3008026
:100FA0000028F5D0D4F84821002545600260C4F837
:100FB0004801C0F88851C0F88C51B6B1446801228C
:100FC00002FA04F2D0F8881100EB84031143022ED8
:100FD000C3F88890C0F888111C46C3F8088104D172
:100FE000D0F88C311A43C0F88C2141688B1C4A1C04
:100FF00040F8237042600020BDE8F883C810080064
:101000000000000070B5084B084C0025E01A841061
:1010100003EB8406043D1CB172599047013CF9E78B
:10102000BDE8704000F05EB8F0100800F410080051
:1010300038B50E4D0E4B0024E81A8510AC4205D091
:101040000B4951F8242090470134F7E700F040F8AD
:101050000849094A541AA5100024AC4205D0054B92
:1010600053F8240080470134F7E738BDDC1008004E
:10107000DC100800DC100800E4100800024B13B17B
:10108000024800F005B87047000000000510080095
:101090000146002002460346FFF766BF010000003C
:1010A0000200000004000000080000001000000022
:1010B000200000004000000080000000000100004F
:1010C00000020000000400001000072043000000A0
:1010D000F8B500BFF8BC08BC9E4670477D100800FC
:1010E0006D010800F8B500BFF8BC08BC9E4670470B
:0410F00045010800AE
:1010F40000093D000000000010000720000000006F
:1011040000000000FC02072064030720CC03072032
:1011140000000000000000000000000000000000CB
:1011240000000000000000000000000000000000BB
:1011340000000000CC1008000000000000000000C7
:10114400000000000000000000000000000000009B
:10115400000000000000000000000000000000008B
:10116400000000000000000000000000000000007B
:10117400000000000000000000000000000000006B
:10118400000000000000000000000000000000005B
:10119400000000000000000000000000000000004B
:1011A400000000000000000001000000000000003A
:1011B4000E33CDAB34126DE6ECDE05000B000000FF
:1011C400000000000000000000000000000000001B
:1011D400000000000000000000000000000000000B
:1011E40000000000000000000000000000000000FB
:1011F40000000000000000000000000000000000EB
:0400000380000B5915
:00000001FF
